{
  "_format": "hh-sol-artifact-1",
  "contractName": "NFT",
  "sourceName": "contracts/NFT.sol",
  "abi": [
    {
      "inputs": [],
      "stateMutability": "nonpayable",
      "type": "constructor"
    },
    {
      "anonymous": false,
      "inputs": [
        {
          "indexed": true,
          "internalType": "address",
          "name": "owner",
          "type": "address"
        },
        {
          "indexed": true,
          "internalType": "address",
          "name": "approved",
          "type": "address"
        },
        {
          "indexed": true,
          "internalType": "uint256",
          "name": "tokenId",
          "type": "uint256"
        }
      ],
      "name": "Approval",
      "type": "event"
    },
    {
      "anonymous": false,
      "inputs": [
        {
          "indexed": true,
          "internalType": "address",
          "name": "owner",
          "type": "address"
        },
        {
          "indexed": true,
          "internalType": "address",
          "name": "operator",
          "type": "address"
        },
        {
          "indexed": false,
          "internalType": "bool",
          "name": "approved",
          "type": "bool"
        }
      ],
      "name": "ApprovalForAll",
      "type": "event"
    },
    {
      "anonymous": false,
      "inputs": [
        {
          "indexed": true,
          "internalType": "address",
          "name": "from",
          "type": "address"
        },
        {
          "indexed": true,
          "internalType": "address",
          "name": "to",
          "type": "address"
        },
        {
          "indexed": true,
          "internalType": "uint256",
          "name": "tokenId",
          "type": "uint256"
        }
      ],
      "name": "Transfer",
      "type": "event"
    },
    {
      "inputs": [
        {
          "internalType": "address",
          "name": "to",
          "type": "address"
        },
        {
          "internalType": "uint256",
          "name": "tokenId",
          "type": "uint256"
        }
      ],
      "name": "approve",
      "outputs": [],
      "stateMutability": "nonpayable",
      "type": "function"
    },
    {
      "inputs": [
        {
          "internalType": "address",
          "name": "owner",
          "type": "address"
        }
      ],
      "name": "balanceOf",
      "outputs": [
        {
          "internalType": "uint256",
          "name": "",
          "type": "uint256"
        }
      ],
      "stateMutability": "view",
      "type": "function"
    },
    {
      "inputs": [],
      "name": "baseTokenURI",
      "outputs": [
        {
          "internalType": "string",
          "name": "",
          "type": "string"
        }
      ],
      "stateMutability": "view",
      "type": "function"
    },
    {
      "inputs": [
        {
          "internalType": "uint256",
          "name": "tokenId",
          "type": "uint256"
        }
      ],
      "name": "getApproved",
      "outputs": [
        {
          "internalType": "address",
          "name": "",
          "type": "address"
        }
      ],
      "stateMutability": "view",
      "type": "function"
    },
    {
      "inputs": [
        {
          "internalType": "address",
          "name": "owner",
          "type": "address"
        },
        {
          "internalType": "address",
          "name": "operator",
          "type": "address"
        }
      ],
      "name": "isApprovedForAll",
      "outputs": [
        {
          "internalType": "bool",
          "name": "",
          "type": "bool"
        }
      ],
      "stateMutability": "view",
      "type": "function"
    },
    {
      "inputs": [
        {
          "internalType": "address",
          "name": "recipient",
          "type": "address"
        }
      ],
      "name": "mintTo",
      "outputs": [
        {
          "internalType": "uint256",
          "name": "",
          "type": "uint256"
        }
      ],
      "stateMutability": "payable",
      "type": "function"
    },
    {
      "inputs": [],
      "name": "name",
      "outputs": [
        {
          "internalType": "string",
          "name": "",
          "type": "string"
        }
      ],
      "stateMutability": "view",
      "type": "function"
    },
    {
      "inputs": [
        {
          "internalType": "uint256",
          "name": "tokenId",
          "type": "uint256"
        }
      ],
      "name": "ownerOf",
      "outputs": [
        {
          "internalType": "address",
          "name": "",
          "type": "address"
        }
      ],
      "stateMutability": "view",
      "type": "function"
    },
    {
      "inputs": [
        {
          "internalType": "address",
          "name": "from",
          "type": "address"
        },
        {
          "internalType": "address",
          "name": "to",
          "type": "address"
        },
        {
          "internalType": "uint256",
          "name": "tokenId",
          "type": "uint256"
        }
      ],
      "name": "safeTransferFrom",
      "outputs": [],
      "stateMutability": "nonpayable",
      "type": "function"
    },
    {
      "inputs": [
        {
          "internalType": "address",
          "name": "from",
          "type": "address"
        },
        {
          "internalType": "address",
          "name": "to",
          "type": "address"
        },
        {
          "internalType": "uint256",
          "name": "tokenId",
          "type": "uint256"
        },
        {
          "internalType": "bytes",
          "name": "_data",
          "type": "bytes"
        }
      ],
      "name": "safeTransferFrom",
      "outputs": [],
      "stateMutability": "nonpayable",
      "type": "function"
    },
    {
      "inputs": [
        {
          "internalType": "address",
          "name": "operator",
          "type": "address"
        },
        {
          "internalType": "bool",
          "name": "approved",
          "type": "bool"
        }
      ],
      "name": "setApprovalForAll",
      "outputs": [],
      "stateMutability": "nonpayable",
      "type": "function"
    },
    {
      "inputs": [
        {
          "internalType": "string",
          "name": "_baseTokenURI",
          "type": "string"
        }
      ],
      "name": "setBaseTokenURI",
      "outputs": [],
      "stateMutability": "nonpayable",
      "type": "function"
    },
    {
      "inputs": [
        {
          "internalType": "bytes4",
          "name": "interfaceId",
          "type": "bytes4"
        }
      ],
      "name": "supportsInterface",
      "outputs": [
        {
          "internalType": "bool",
          "name": "",
          "type": "bool"
        }
      ],
      "stateMutability": "view",
      "type": "function"
    },
    {
      "inputs": [],
      "name": "symbol",
      "outputs": [
        {
          "internalType": "string",
          "name": "",
          "type": "string"
        }
      ],
      "stateMutability": "view",
      "type": "function"
    },
    {
      "inputs": [
        {
          "internalType": "uint256",
          "name": "tokenId",
          "type": "uint256"
        }
      ],
      "name": "tokenURI",
      "outputs": [
        {
          "internalType": "string",
          "name": "",
          "type": "string"
        }
      ],
      "stateMutability": "view",
      "type": "function"
    },
    {
      "inputs": [
        {
          "internalType": "address",
          "name": "from",
          "type": "address"
        },
        {
          "internalType": "address",
          "name": "to",
          "type": "address"
        },
        {
          "internalType": "uint256",
          "name": "tokenId",
          "type": "uint256"
        }
      ],
      "name": "transferFrom",
      "outputs": [],
      "stateMutability": "nonpayable",
      "type": "function"
    }
  ],
  "bytecode": "0x60806040523480156200001157600080fd5b506040518060400160405280600b81526020017f556e6c75636b79536c75670000000000000000000000000000000000000000008152506040518060400160405280600381526020017f4e46540000000000000000000000000000000000000000000000000000000000815250816000908051906020019062000096929190620000e0565b508060019080519060200190620000af929190620000e0565b5050506040518060200160405280600081525060079080519060200190620000d9929190620000e0565b50620001f5565b828054620000ee9062000190565b90600052602060002090601f0160209004810192826200011257600085556200015e565b82601f106200012d57805160ff19168380011785556200015e565b828001600101855582156200015e579182015b828111156200015d57825182559160200191906001019062000140565b5b5090506200016d919062000171565b5090565b5b808211156200018c57600081600090555060010162000172565b5090565b60006002820490506001821680620001a957607f821691505b60208210811415620001c057620001bf620001c6565b5b50919050565b7f4e487b7100000000000000000000000000000000000000000000000000000000600052602260045260246000fd5b612b3480620002056000396000f3fe6080604052600436106100f35760003560e01c806370a082311161008a578063b88d4fde11610059578063b88d4fde1461033f578063c87b56dd14610368578063d547cfb7146103a5578063e985e9c5146103d0576100f3565b806370a082311461027e578063755edd17146102bb57806395d89b41146102eb578063a22cb46514610316576100f3565b806323b872dd116100c657806323b872dd146101c657806330176e13146101ef57806342842e0e146102185780636352211e14610241576100f3565b806301ffc9a7146100f857806306fdde0314610135578063081812fc14610160578063095ea7b31461019d575b600080fd5b34801561010457600080fd5b5061011f600480360381019061011a9190611cc4565b61040d565b60405161012c91906120c5565b60405180910390f35b34801561014157600080fd5b5061014a6104ef565b60405161015791906120e0565b60405180910390f35b34801561016c57600080fd5b5061018760048036038101906101829190611d57565b610581565b604051610194919061205e565b60405180910390f35b3480156101a957600080fd5b506101c460048036038101906101bf9190611c88565b610606565b005b3480156101d257600080fd5b506101ed60048036038101906101e89190611b82565b61071e565b005b3480156101fb57600080fd5b5061021660048036038101906102119190611d16565b61077e565b005b34801561022457600080fd5b5061023f600480360381019061023a9190611b82565b610798565b005b34801561024d57600080fd5b5061026860048036038101906102639190611d57565b6107b8565b604051610275919061205e565b60405180910390f35b34801561028a57600080fd5b506102a560048036038101906102a09190611b1d565b61086a565b6040516102b291906122c2565b60405180910390f35b6102d560048036038101906102d09190611b1d565b610922565b6040516102e291906122c2565b60405180910390f35b3480156102f757600080fd5b5061030061094f565b60405161030d91906120e0565b60405180910390f35b34801561032257600080fd5b5061033d60048036038101906103389190611c4c565b6109e1565b005b34801561034b57600080fd5b5061036660048036038101906103619190611bd1565b6109f7565b005b34801561037457600080fd5b5061038f600480360381019061038a9190611d57565b610a59565b60405161039c91906120e0565b60405180910390f35b3480156103b157600080fd5b506103ba610b00565b6040516103c791906120e0565b60405180910390f35b3480156103dc57600080fd5b506103f760048036038101906103f29190611b46565b610b8e565b60405161040491906120c5565b60405180910390f35b60007f80ac58cd000000000000000000000000000000000000000000000000000000007bffffffffffffffffffffffffffffffffffffffffffffffffffffffff1916827bffffffffffffffffffffffffffffffffffffffffffffffffffffffff191614806104d857507f5b5e139f000000000000000000000000000000000000000000000000000000007bffffffffffffffffffffffffffffffffffffffffffffffffffffffff1916827bffffffffffffffffffffffffffffffffffffffffffffffffffffffff1916145b806104e857506104e782610c22565b5b9050919050565b6060600080546104fe90612518565b80601f016020809104026020016040519081016040528092919081815260200182805461052a90612518565b80156105775780601f1061054c57610100808354040283529160200191610577565b820191906000526020600020905b81548152906001019060200180831161055a57829003601f168201915b5050505050905090565b600061058c82610c8c565b6105cb576040517f08c379a00000000000000000000000000000000000000000000000000000000081526004016105c290612242565b60405180910390fd5b6004600083815260200190815260200160002060009054906101000a900473ffffffffffffffffffffffffffffffffffffffff169050919050565b6000610611826107b8565b90508073ffffffffffffffffffffffffffffffffffffffff168373ffffffffffffffffffffffffffffffffffffffff161415610682576040517f08c379a000000000000000000000000000000000000000000000000000000000815260040161067990612282565b60405180910390fd5b8073ffffffffffffffffffffffffffffffffffffffff166106a1610cf8565b73ffffffffffffffffffffffffffffffffffffffff1614806106d057506106cf816106ca610cf8565b610b8e565b5b61070f576040517f08c379a0000000000000000000000000000000000000000000000000000000008152600401610706906121c2565b60405180910390fd5b6107198383610d00565b505050565b61072f610729610cf8565b82610db9565b61076e576040517f08c379a0000000000000000000000000000000000000000000000000000000008152600401610765906122a2565b60405180910390fd5b610779838383610e97565b505050565b8060079080519060200190610794929190611941565b5050565b6107b3838383604051806020016040528060008152506109f7565b505050565b6000806002600084815260200190815260200160002060009054906101000a900473ffffffffffffffffffffffffffffffffffffffff169050600073ffffffffffffffffffffffffffffffffffffffff168173ffffffffffffffffffffffffffffffffffffffff161415610861576040517f08c379a000000000000000000000000000000000000000000000000000000000815260040161085890612202565b60405180910390fd5b80915050919050565b60008073ffffffffffffffffffffffffffffffffffffffff168273ffffffffffffffffffffffffffffffffffffffff1614156108db576040517f08c379a00000000000000000000000000000000000000000000000000000000081526004016108d2906121e2565b60405180910390fd5b600360008373ffffffffffffffffffffffffffffffffffffffff1673ffffffffffffffffffffffffffffffffffffffff168152602001908152602001600020549050919050565b600061092e60066110fe565b600061093a6006611114565b90506109468382611122565b80915050919050565b60606001805461095e90612518565b80601f016020809104026020016040519081016040528092919081815260200182805461098a90612518565b80156109d75780601f106109ac576101008083540402835291602001916109d7565b820191906000526020600020905b8154815290600101906020018083116109ba57829003601f168201915b5050505050905090565b6109f36109ec610cf8565b8383611140565b5050565b610a08610a02610cf8565b83610db9565b610a47576040517f08c379a0000000000000000000000000000000000000000000000000000000008152600401610a3e906122a2565b60405180910390fd5b610a53848484846112ad565b50505050565b6060610a6482610c8c565b610aa3576040517f08c379a0000000000000000000000000000000000000000000000000000000008152600401610a9a90612262565b60405180910390fd5b6000610aad611309565b90506000815111610acd5760405180602001604052806000815250610af8565b80610ad78461139b565b604051602001610ae892919061203a565b6040516020818303038152906040525b915050919050565b60078054610b0d90612518565b80601f0160208091040260200160405190810160405280929190818152602001828054610b3990612518565b8015610b865780601f10610b5b57610100808354040283529160200191610b86565b820191906000526020600020905b815481529060010190602001808311610b6957829003601f168201915b505050505081565b6000600560008473ffffffffffffffffffffffffffffffffffffffff1673ffffffffffffffffffffffffffffffffffffffff16815260200190815260200160002060008373ffffffffffffffffffffffffffffffffffffffff1673ffffffffffffffffffffffffffffffffffffffff16815260200190815260200160002060009054906101000a900460ff16905092915050565b60007f01ffc9a7000000000000000000000000000000000000000000000000000000007bffffffffffffffffffffffffffffffffffffffffffffffffffffffff1916827bffffffffffffffffffffffffffffffffffffffffffffffffffffffff1916149050919050565b60008073ffffffffffffffffffffffffffffffffffffffff166002600084815260200190815260200160002060009054906101000a900473ffffffffffffffffffffffffffffffffffffffff1673ffffffffffffffffffffffffffffffffffffffff1614159050919050565b600033905090565b816004600083815260200190815260200160002060006101000a81548173ffffffffffffffffffffffffffffffffffffffff021916908373ffffffffffffffffffffffffffffffffffffffff160217905550808273ffffffffffffffffffffffffffffffffffffffff16610d73836107b8565b73ffffffffffffffffffffffffffffffffffffffff167f8c5be1e5ebec7d5bd14f71427d1e84f3dd0314c0f7b2291e5b200ac8c7c3b92560405160405180910390a45050565b6000610dc482610c8c565b610e03576040517f08c379a0000000000000000000000000000000000000000000000000000000008152600401610dfa906121a2565b60405180910390fd5b6000610e0e836107b8565b90508073ffffffffffffffffffffffffffffffffffffffff168473ffffffffffffffffffffffffffffffffffffffff161480610e505750610e4f8185610b8e565b5b80610e8e57508373ffffffffffffffffffffffffffffffffffffffff16610e7684610581565b73ffffffffffffffffffffffffffffffffffffffff16145b91505092915050565b8273ffffffffffffffffffffffffffffffffffffffff16610eb7826107b8565b73ffffffffffffffffffffffffffffffffffffffff1614610f0d576040517f08c379a0000000000000000000000000000000000000000000000000000000008152600401610f0490612122565b60405180910390fd5b600073ffffffffffffffffffffffffffffffffffffffff168273ffffffffffffffffffffffffffffffffffffffff161415610f7d576040517f08c379a0000000000000000000000000000000000000000000000000000000008152600401610f7490612162565b60405180910390fd5b610f88838383611548565b610f93600082610d00565b6001600360008573ffffffffffffffffffffffffffffffffffffffff1673ffffffffffffffffffffffffffffffffffffffff1681526020019081526020016000206000828254610fe3919061242e565b925050819055506001600360008473ffffffffffffffffffffffffffffffffffffffff1673ffffffffffffffffffffffffffffffffffffffff168152602001908152602001600020600082825461103a91906123a7565b92505081905550816002600083815260200190815260200160002060006101000a81548173ffffffffffffffffffffffffffffffffffffffff021916908373ffffffffffffffffffffffffffffffffffffffff160217905550808273ffffffffffffffffffffffffffffffffffffffff168473ffffffffffffffffffffffffffffffffffffffff167fddf252ad1be2c89b69c2b068fc378daa952ba7f163c4a11628f55a4df523b3ef60405160405180910390a46110f983838361154d565b505050565b6001816000016000828254019250508190555050565b600081600001549050919050565b61113c828260405180602001604052806000815250611552565b5050565b8173ffffffffffffffffffffffffffffffffffffffff168373ffffffffffffffffffffffffffffffffffffffff1614156111af576040517f08c379a00000000000000000000000000000000000000000000000000000000081526004016111a690612182565b60405180910390fd5b80600560008573ffffffffffffffffffffffffffffffffffffffff1673ffffffffffffffffffffffffffffffffffffffff16815260200190815260200160002060008473ffffffffffffffffffffffffffffffffffffffff1673ffffffffffffffffffffffffffffffffffffffff16815260200190815260200160002060006101000a81548160ff0219169083151502179055508173ffffffffffffffffffffffffffffffffffffffff168373ffffffffffffffffffffffffffffffffffffffff167f17307eab39ab6107e8899845ad3d59bd9653f200f220920489ca2b5937696c31836040516112a091906120c5565b60405180910390a3505050565b6112b8848484610e97565b6112c4848484846115ad565b611303576040517f08c379a00000000000000000000000000000000000000000000000000000000081526004016112fa90612102565b60405180910390fd5b50505050565b60606007805461131890612518565b80601f016020809104026020016040519081016040528092919081815260200182805461134490612518565b80156113915780601f1061136657610100808354040283529160200191611391565b820191906000526020600020905b81548152906001019060200180831161137457829003601f168201915b5050505050905090565b606060008214156113e3576040518060400160405280600181526020017f30000000000000000000000000000000000000000000000000000000000000008152509050611543565b600082905060005b600082146114155780806113fe9061257b565b915050600a8261140e91906123fd565b91506113eb565b60008167ffffffffffffffff811115611457577f4e487b7100000000000000000000000000000000000000000000000000000000600052604160045260246000fd5b6040519080825280601f01601f1916602001820160405280156114895781602001600182028036833780820191505090505b5090505b6000851461153c576001826114a2919061242e565b9150600a856114b191906125c4565b60306114bd91906123a7565b60f81b8183815181106114f9577f4e487b7100000000000000000000000000000000000000000000000000000000600052603260045260246000fd5b60200101907effffffffffffffffffffffffffffffffffffffffffffffffffffffffffffff1916908160001a905350600a8561153591906123fd565b945061148d565b8093505050505b919050565b505050565b505050565b61155c8383611744565b61156960008484846115ad565b6115a8576040517f08c379a000000000000000000000000000000000000000000000000000000000815260040161159f90612102565b60405180910390fd5b505050565b60006115ce8473ffffffffffffffffffffffffffffffffffffffff1661191e565b15611737578373ffffffffffffffffffffffffffffffffffffffff1663150b7a026115f7610cf8565b8786866040518563ffffffff1660e01b81526004016116199493929190612079565b602060405180830381600087803b15801561163357600080fd5b505af192505050801561166457506040513d601f19601f820116820180604052508101906116619190611ced565b60015b6116e7573d8060008114611694576040519150601f19603f3d011682016040523d82523d6000602084013e611699565b606091505b506000815114156116df576040517f08c379a00000000000000000000000000000000000000000000000000000000081526004016116d690612102565b60405180910390fd5b805181602001fd5b63150b7a0260e01b7bffffffffffffffffffffffffffffffffffffffffffffffffffffffff1916817bffffffffffffffffffffffffffffffffffffffffffffffffffffffff19161491505061173c565b600190505b949350505050565b600073ffffffffffffffffffffffffffffffffffffffff168273ffffffffffffffffffffffffffffffffffffffff1614156117b4576040517f08c379a00000000000000000000000000000000000000000000000000000000081526004016117ab90612222565b60405180910390fd5b6117bd81610c8c565b156117fd576040517f08c379a00000000000000000000000000000000000000000000000000000000081526004016117f490612142565b60405180910390fd5b61180960008383611548565b6001600360008473ffffffffffffffffffffffffffffffffffffffff1673ffffffffffffffffffffffffffffffffffffffff168152602001908152602001600020600082825461185991906123a7565b92505081905550816002600083815260200190815260200160002060006101000a81548173ffffffffffffffffffffffffffffffffffffffff021916908373ffffffffffffffffffffffffffffffffffffffff160217905550808273ffffffffffffffffffffffffffffffffffffffff16600073ffffffffffffffffffffffffffffffffffffffff167fddf252ad1be2c89b69c2b068fc378daa952ba7f163c4a11628f55a4df523b3ef60405160405180910390a461191a6000838361154d565b5050565b6000808273ffffffffffffffffffffffffffffffffffffffff163b119050919050565b82805461194d90612518565b90600052602060002090601f01602090048101928261196f57600085556119b6565b82601f1061198857805160ff19168380011785556119b6565b828001600101855582156119b6579182015b828111156119b557825182559160200191906001019061199a565b5b5090506119c391906119c7565b5090565b5b808211156119e05760008160009055506001016119c8565b5090565b60006119f76119f284612302565b6122dd565b905082815260208101848484011115611a0f57600080fd5b611a1a8482856124d6565b509392505050565b6000611a35611a3084612333565b6122dd565b905082815260208101848484011115611a4d57600080fd5b611a588482856124d6565b509392505050565b600081359050611a6f81612aa2565b92915050565b600081359050611a8481612ab9565b92915050565b600081359050611a9981612ad0565b92915050565b600081519050611aae81612ad0565b92915050565b600082601f830112611ac557600080fd5b8135611ad58482602086016119e4565b91505092915050565b600082601f830112611aef57600080fd5b8135611aff848260208601611a22565b91505092915050565b600081359050611b1781612ae7565b92915050565b600060208284031215611b2f57600080fd5b6000611b3d84828501611a60565b91505092915050565b60008060408385031215611b5957600080fd5b6000611b6785828601611a60565b9250506020611b7885828601611a60565b9150509250929050565b600080600060608486031215611b9757600080fd5b6000611ba586828701611a60565b9350506020611bb686828701611a60565b9250506040611bc786828701611b08565b9150509250925092565b60008060008060808587031215611be757600080fd5b6000611bf587828801611a60565b9450506020611c0687828801611a60565b9350506040611c1787828801611b08565b925050606085013567ffffffffffffffff811115611c3457600080fd5b611c4087828801611ab4565b91505092959194509250565b60008060408385031215611c5f57600080fd5b6000611c6d85828601611a60565b9250506020611c7e85828601611a75565b9150509250929050565b60008060408385031215611c9b57600080fd5b6000611ca985828601611a60565b9250506020611cba85828601611b08565b9150509250929050565b600060208284031215611cd657600080fd5b6000611ce484828501611a8a565b91505092915050565b600060208284031215611cff57600080fd5b6000611d0d84828501611a9f565b91505092915050565b600060208284031215611d2857600080fd5b600082013567ffffffffffffffff811115611d4257600080fd5b611d4e84828501611ade565b91505092915050565b600060208284031215611d6957600080fd5b6000611d7784828501611b08565b91505092915050565b611d8981612462565b82525050565b611d9881612474565b82525050565b6000611da982612364565b611db3818561237a565b9350611dc38185602086016124e5565b611dcc816126b1565b840191505092915050565b6000611de28261236f565b611dec818561238b565b9350611dfc8185602086016124e5565b611e05816126b1565b840191505092915050565b6000611e1b8261236f565b611e25818561239c565b9350611e358185602086016124e5565b80840191505092915050565b6000611e4e60328361238b565b9150611e59826126c2565b604082019050919050565b6000611e7160258361238b565b9150611e7c82612711565b604082019050919050565b6000611e94601c8361238b565b9150611e9f82612760565b602082019050919050565b6000611eb760248361238b565b9150611ec282612789565b604082019050919050565b6000611eda60198361238b565b9150611ee5826127d8565b602082019050919050565b6000611efd602c8361238b565b9150611f0882612801565b604082019050919050565b6000611f2060388361238b565b9150611f2b82612850565b604082019050919050565b6000611f43602a8361238b565b9150611f4e8261289f565b604082019050919050565b6000611f6660298361238b565b9150611f71826128ee565b604082019050919050565b6000611f8960208361238b565b9150611f948261293d565b602082019050919050565b6000611fac602c8361238b565b9150611fb782612966565b604082019050919050565b6000611fcf602f8361238b565b9150611fda826129b5565b604082019050919050565b6000611ff260218361238b565b9150611ffd82612a04565b604082019050919050565b600061201560318361238b565b915061202082612a53565b604082019050919050565b612034816124cc565b82525050565b60006120468285611e10565b91506120528284611e10565b91508190509392505050565b60006020820190506120736000830184611d80565b92915050565b600060808201905061208e6000830187611d80565b61209b6020830186611d80565b6120a8604083018561202b565b81810360608301526120ba8184611d9e565b905095945050505050565b60006020820190506120da6000830184611d8f565b92915050565b600060208201905081810360008301526120fa8184611dd7565b905092915050565b6000602082019050818103600083015261211b81611e41565b9050919050565b6000602082019050818103600083015261213b81611e64565b9050919050565b6000602082019050818103600083015261215b81611e87565b9050919050565b6000602082019050818103600083015261217b81611eaa565b9050919050565b6000602082019050818103600083015261219b81611ecd565b9050919050565b600060208201905081810360008301526121bb81611ef0565b9050919050565b600060208201905081810360008301526121db81611f13565b9050919050565b600060208201905081810360008301526121fb81611f36565b9050919050565b6000602082019050818103600083015261221b81611f59565b9050919050565b6000602082019050818103600083015261223b81611f7c565b9050919050565b6000602082019050818103600083015261225b81611f9f565b9050919050565b6000602082019050818103600083015261227b81611fc2565b9050919050565b6000602082019050818103600083015261229b81611fe5565b9050919050565b600060208201905081810360008301526122bb81612008565b9050919050565b60006020820190506122d7600083018461202b565b92915050565b60006122e76122f8565b90506122f3828261254a565b919050565b6000604051905090565b600067ffffffffffffffff82111561231d5761231c612682565b5b612326826126b1565b9050602081019050919050565b600067ffffffffffffffff82111561234e5761234d612682565b5b612357826126b1565b9050602081019050919050565b600081519050919050565b600081519050919050565b600082825260208201905092915050565b600082825260208201905092915050565b600081905092915050565b60006123b2826124cc565b91506123bd836124cc565b9250827fffffffffffffffffffffffffffffffffffffffffffffffffffffffffffffffff038211156123f2576123f16125f5565b5b828201905092915050565b6000612408826124cc565b9150612413836124cc565b92508261242357612422612624565b5b828204905092915050565b6000612439826124cc565b9150612444836124cc565b925082821015612457576124566125f5565b5b828203905092915050565b600061246d826124ac565b9050919050565b60008115159050919050565b60007fffffffff0000000000000000000000000000000000000000000000000000000082169050919050565b600073ffffffffffffffffffffffffffffffffffffffff82169050919050565b6000819050919050565b82818337600083830152505050565b60005b838110156125035780820151818401526020810190506124e8565b83811115612512576000848401525b50505050565b6000600282049050600182168061253057607f821691505b6020821081141561254457612543612653565b5b50919050565b612553826126b1565b810181811067ffffffffffffffff8211171561257257612571612682565b5b80604052505050565b6000612586826124cc565b91507fffffffffffffffffffffffffffffffffffffffffffffffffffffffffffffffff8214156125b9576125b86125f5565b5b600182019050919050565b60006125cf826124cc565b91506125da836124cc565b9250826125ea576125e9612624565b5b828206905092915050565b7f4e487b7100000000000000000000000000000000000000000000000000000000600052601160045260246000fd5b7f4e487b7100000000000000000000000000000000000000000000000000000000600052601260045260246000fd5b7f4e487b7100000000000000000000000000000000000000000000000000000000600052602260045260246000fd5b7f4e487b7100000000000000000000000000000000000000000000000000000000600052604160045260246000fd5b6000601f19601f8301169050919050565b7f4552433732313a207472616e7366657220746f206e6f6e20455243373231526560008201527f63656976657220696d706c656d656e7465720000000000000000000000000000602082015250565b7f4552433732313a207472616e736665722066726f6d20696e636f72726563742060008201527f6f776e6572000000000000000000000000000000000000000000000000000000602082015250565b7f4552433732313a20746f6b656e20616c7265616479206d696e74656400000000600082015250565b7f4552433732313a207472616e7366657220746f20746865207a65726f2061646460008201527f7265737300000000000000000000000000000000000000000000000000000000602082015250565b7f4552433732313a20617070726f766520746f2063616c6c657200000000000000600082015250565b7f4552433732313a206f70657261746f7220717565727920666f72206e6f6e657860008201527f697374656e7420746f6b656e0000000000000000000000000000000000000000602082015250565b7f4552433732313a20617070726f76652063616c6c6572206973206e6f74206f7760008201527f6e6572206e6f7220617070726f76656420666f7220616c6c0000000000000000602082015250565b7f4552433732313a2062616c616e636520717565727920666f7220746865207a6560008201527f726f206164647265737300000000000000000000000000000000000000000000602082015250565b7f4552433732313a206f776e657220717565727920666f72206e6f6e657869737460008201527f656e7420746f6b656e0000000000000000000000000000000000000000000000602082015250565b7f4552433732313a206d696e7420746f20746865207a65726f2061646472657373600082015250565b7f4552433732313a20617070726f76656420717565727920666f72206e6f6e657860008201527f697374656e7420746f6b656e0000000000000000000000000000000000000000602082015250565b7f4552433732314d657461646174613a2055524920717565727920666f72206e6f60008201527f6e6578697374656e7420746f6b656e0000000000000000000000000000000000602082015250565b7f4552433732313a20617070726f76616c20746f2063757272656e74206f776e6560008201527f7200000000000000000000000000000000000000000000000000000000000000602082015250565b7f4552433732313a207472616e736665722063616c6c6572206973206e6f74206f60008201527f776e6572206e6f7220617070726f766564000000000000000000000000000000602082015250565b612aab81612462565b8114612ab657600080fd5b50565b612ac281612474565b8114612acd57600080fd5b50565b612ad981612480565b8114612ae457600080fd5b50565b612af0816124cc565b8114612afb57600080fd5b5056fea2646970667358221220418c8fae5d5620216918241d4a11a5229a5aa4d70f191192fdddb36af563778164736f6c63430008010033",
  "linkReferences": {},
  "deployedLinkReferences": {}
}